:1000000019C02BC02AC029C028C027C026C025C0BF
:1000100024C023C022C021C020C01FC01EC01DC0DC
:100020001CC01BC01AC019C018C017C016C015C00C
:1000300014C013C011241FBECFEFCDBFDFE3DEBF5E
:100040001FE3A0E0BFE3E4E7F1E002C005900D92FA
:10005000A230B107D9F781D08BC0D2CFCF93DF9335
:10006000CDB7DEB78EE190E02FE7FC0120838CE175
:1000700090E02FE7FC0120830000DF91CF910895ED
:10008000CF93DF93CDB7DEB72597CDBFDEBF8D838E
:100090008DE190E02D81FC0120838CE190E02091A6
:1000A000003F2F5F20682093003F2091003FFC011C
:1000B000208319821A821B821C820CC00000898155
:1000C0009A81AB81BC810196A11DB11D89839A8360
:1000D000AB83BC8389819A81AB81BC818C31924096
:1000E000A105B10558F300002596CDBFDEBFDF9115
:1000F000CF910895CF93DF931F92CDB7DEB78EE1F6
:1001000090E0FC0180818983898188232CF089819A
:100110008093013F80E008C08091013F998198174A
:1001200011F480E001C081E00F90DF91CF9108953C
:10013000CF93DF93CDB7DEB70000DCDF8823E9F390
:100140008EE190E0FC0180818093013F8FE190E09F
:10015000FC018081DF91CF910895CF93DF93CDB7DC
:10016000DEB77CDFC7DF8823E9F3E2DF89DFFACF80
:04017000F894FFCF31
:020174007F7F8B
:00000001FF
