:1000000052C100006BC1000069C1000067C100005F
:1000100065C1000063C1000061C100005FC1000054
:100020005DC100005BC1000059C1000057C1000064
:1000300055C1000053C1000051C100004FC1000074
:100040004DC100004BC1000049C1000047C1000084
:1000500045C1000043C1000041C100003FC1000094
:100060003DC100003BC10000860101000601010006
:1000700006010000000000004A5441474943452062
:100080006D6B49490065736172454D564E4003A042
:1000900001CF0067003300220010008A0020676F44
:1000A00072504D564E0000891112239B322446ADEA
:1000B000573665BF74488CC19D5AAFD3BE6CCAE534
:1000C000DB7EE9F7F88110080193331A22A5562C3C
:1000D00047B7753E64C99C408DDBBF52AEEDDA6414
:1000E000CBFFF976E802218B30100299132667AF17
:1000F000763444BD554AADC3BC588ED19F6EEBE7F4
:10010000FA7CC8F5D983310A2091121803A7772EFB
:1001100066B5543C45CBBD42ACD99E508FEFFB66D3
:10012000EAFDD874C904428D5316619F702004A95A
:10013000153227BB364CCEC5DF5EEDD7FC6888E1B3
:10014000997AABF3BA85520C4397711E60A11428BB
:1001500005B3373A26CDDE44CFDFFD56ECE9986093
:1001600089FBBB72AA06638F7214409D512225AB96
:10017000343006B9174EEFC7FE5CCCD5DD6AA9E373
:10018000B8788AF19B87730E6295501C41A3352A7B
:1001900024B1163807CFFF46EEDDDC54CDEBB96253
:1001A000A8F99A708B088481951AA793B62CC2A5DA
:1001B000D33EE1B7F04008C919522BDB3A644EED4B
:1001C0005F766DFF7C899400859BB712A6ADD22423
:1001D000C3BFF136E0C1184809D33B5A2AE55E6C2B
:1001E0004FF77D7E6C0AA583B4188691972EE3A7FE
:1001F000F23CC0B5D14229CB38500AD91B666FEF0B
:100200007E744CFD5D8BB502A499961087AFF326E2
:10021000E2BDD034C1C3394A28D11A580BE77F6EEA
:100220006EF55C7C4D0CC685D71EE597F42880A141
:10023000913AA3B3B2444ACD5B5669DF78600CE9CA
:100240001D722FFB3E8DD604C79FF516E4A99020A2
:1002500081BBB332A2C55A4C4BD7795E68E11C68AA
:100260000DF33F7A2E0EE787F61CC495D52AA1A37D
:10027000B03882B193466BCF7A5448DD59622DEB8A
:100280003C700EF91F8FF706E69DD414C5ABB12262
:10029000A0B9923083C77B4E6AD5585C49E33D6A6A
:1002A0002CF11E780F0011241FBECFEFD8E0DEBF67
:1002B000CDBF11E0A0E0B1E0E4E6FDE002C00590B2
:1002C0000D92A430B107D9F723E0A4E0B1E001C05A
:1002D0001D92AD3CB207E1F70AD242C591CE862706
:1002E000E82FF0E0EE0FFF1FEB55FF4F2591349103
:1002F000872F8227932F0895569A0BB038E720E373
:100300002A95F1F75E9801F025E12A95F1F780FB37
:1003100006F887953041000087F90BB8A8F727E168
:100320002A95F1F730FB06F80BB828E12A95F1F78A
:100330005E9A5698089556985E981092850010928D
:100340008400A1E8B0E084E08C93E6E3F0E080E88C
:100350002081247079F44E99FBCF2EE02A95F1F795
:1003600026E12150F1F74E9908948795C8F720E3CC
:100370002A95F1F75E9A1C92089585E5BDDF84E029
:10038000BBDF82E0B9DF80E1B7DFD5CF85E5B4DF41
:100390008BE8B2DFD0CFCF93C82F85E5ADDF84E601
:1003A000ABDF8C2FA9DFCF91C6CFCF9385E5A4DF3C
:1003B00089E2A2DFC0DFC82FBEDF2C2F30E0A90109
:1003C000582BCA01CF9108951F93CF93DF93162F17
:1003D000D72FC82F85E590DF8AE68EDF812F8CDF4F
:1003E0008D2F8ADF8C2F88DFDF91CF911F91A3CFD4
:1003F000CF93DF93D82FC92F85E57EDF89E67CDF99
:100400008D2F7ADF8C2F78DFDF91CF9194CF0F93F0
:100410001F93CF93DF938B01D82FC42F85E56CDF1B
:1004200088E46ADF802F68DF812F66DF8D2F64DF2D
:1004300082DF8C2F61DFDF91CF911F910F917BCFF6
:100440001F93CF93DF93182FD92FC62F85E554DF45
:1004500084E452DF812F50DF8D2F4EDF6CDF8C2F35
:100460004BDFDF91CF911F9166CFCF93DF93D82FD2
:10047000C62F85E541DF80E43FDF8D2F3DDF5BDF69
:100480008C2F3ADFDF91CF9156CFCF93C82F85E5E0
:1004900033DF80E031DF8C2F2FDFCF914CCFCF9334
:1004A000C82F85E529DF80EA27DF8C2FCF9124CF65
:1004B000CF93DF93D82FC62F85E51EDF80EC8D0FFD
:1004C0001BDF8C2FDF91CF9117CFCF93DF9369E59F
:1004D00088E0EEDF60E088E0EBDFC0E0D6E056DFEA
:1004E0008E7039F4C23029F0B29BF9CFD6BBCF5F02
:1004F000F6CF81E0C23008F080E0DF91CF9108951F
:10050000E0ECF0E0808187FFFDCF8091C600089588
:10051000E0ECF0E0908195FFFDCF908190649083B6
:100520008093C6000895EF92FF921F93CF93DF93BD
:10053000182FD62FCFEFC80F38DF7C011EDF837056
:10054000E9F7C70155DF6EE082E0B2DF8C2FA7DF4D
:10055000ED2FF0E0E55FFE4FC68185E5CDDE84E658
:10056000CBDE8C2FC9DEC1E0CD0FD10FCD1741F00E
:10057000EC2FF0E0E55FFE4F8681BEDECF5FF6CF69
:1005800066E082E095DF8C2FDF91CF911F91FF9085
:10059000EF900895F2DE8370E9F70895482F60E048
:1005A00070E180E090E033CF85E5A6DE88E0A4DE50
:1005B00082E0A2DE80E1A0DE80E09EDEBCDE837011
:1005C00099F708950F931F93CF93DF938C0185E5DF
:1005D00093DE80EE91DEE80118E0FE0184918CDE6E
:1005E00021961150D1F7DF91CF911F910F9108956E
:1005F000EBE0F1E021E030E033832283868308954D
:1006000064E083E055DF80910A018E7F80930A01C8
:1006100080E8EECFBBDE8F7E883021F0823889F40F
:1006200080E008C080910201823011F4BDDF01C07A
:10063000B1DF4BDF2D98882311F080E801C08BEAF1
:10064000D7CFEBE0F1E022E030E03383228395EA7C
:10065000968387830895CF9399DEC82FCF7EC132CA
:1006600041F018F4C83099F028C0C23811F0C23AED
:1006700021F52BDF811102C08BEA1DC087DE80FDD2
:100680001CC08DE990E09EDF20DF8823A9F38091D4
:100690000201813029F464E080E090E1D1DE09C0FC
:1006A00083DF40E062E070E180E090E0B0DE81E076
:1006B00075DF2D9A80E8CF919BCFEBE0F1E085EAE2
:1006C0008683C783CF910895569A5E9829E989E178
:1006D00091E0215080409040E1F700005E9A8FEF5A
:1006E0009FE10197F1F700C000005698089580E45B
:1006F0008BB9259A8AE698E190938B0080938A00C3
:1007000082E08093C00087E690E09093C5008093DC
:10071000C40088E18093C100CBE0D1E04E017E01AE
:1007200052E0252E312CE0ECF0E0808187FF12C0F2
:10073000E7DE8B3109F1909108019923A1F3682F2D
:100740008FE193DE609101016F5F6068609301014A
:100750008EE18BDE80910801882329F38CE195DE00
:1007600087FFE1CF909100018917E9F280930001A2
:100770008DE18BDECDDED7CF6FEF7FEF8BE1AFDD8D
:100780008C014BE0C42E41E0D42EBADEF6018193F9
:100790006F01B801A4DD8C0121E131E02C153D058C
:1007A000A1F78A819B818D3B924008F0BCCFA8DEE7
:1007B0008E3009F0B8CFB80192DD6C010BE011E08A
:1007C000C8018C1B9D0B0F5F1F4F2A813B81821735
:1007D000930738F495DEF8018583B60180DD6C015E
:1007E000EFCF8EDE182F8CDE212F30E0382BC21693
:1007F000D30609F098CF10920801F701868188305E
:1008000009F4A0C020F5823009F47BC0C0F488232D
:1008100009F48BC0813009F05CC282E0809304014E
:1008200084E0809309018DE190E0F7019383828356
:10083000E8E6F0E08EE291E0A1E1B1E021C0843091
:1008400009F4EEC048F1853009F4A4C042C28431F5
:1008500009F402C250F48C3009F477C08F3009F4E7
:1008600036C28B3009F035C2F7C1843309F4DDC1DB
:10087000803709F41FC2853109F02BC2CBDE2BC2B1
:1008800024912D9331968A179B07D1F780910A0105
:10089000826080930A011FC2F7018781833009F1CA
:1008A00070F48130C1F08230F1F585E090E09B83F7
:1008B0008A831F8286E0888719868A8720C08530D0
:1008C000B9F0863081F523E030E03B832A8388E865
:1008D0008F8383E113C023E030E03B832A838F833F
:1008E0000DC0F7013382228280910401878307C003
:1008F0003B822A82809109018F8301C0888781E829
:100900008DC0F70180859781933019F0953021F0E3
:100910000AC080930401DBC19FEF980F983018F450
:1009200080930901D4C181EAD5C184E08093090193
:1009300080910A0180FF02C06DDE62DE80910A01B3
:100940008D7F25C067DE5CDEC6C1E5E0F2E0808118
:1009500091819093070180930601E7E0F2E08081A6
:1009600080930501B1DEB0DE66E082E0A1DD80911A
:100970000601909107018F3F910519F010F082E078
:1009800001C081E08093020180910A01816080931F
:100990000A019DC1FBDC883039F03B822A8285EA5E
:1009A0008E8381E08F8397C108851985809102012C
:1009B000813019F432E0D32E02C023E0D22E85E537
:1009C0009BDC87E68D0D98DC8C8596DC8D8594DC30
:1009D000F3E0DF1202C08E858FDCADDC8FEF800F7D
:1009E0005EDD85E589DC84E287DCA5DC8F8383E13D
:1009F000A82E81E0B82E92E0C92ED12C0C151D0531
:100A000040F099DCF50181935F01FFEFCF1ADF0A17
:100A1000F5CF0F5F1F4F1B830A8382E88E835BC174
:100A2000B5DC883009F0B9CFF701878100851185E1
:100A300060900201F1E06F126BC0F701D484C584AD
:100A400090E4980F923020F4E6E0F1E0508004C08A
:100A500050900501B3E06B2E823CC0F4803CD0F492
:100A60008232C1F008F4DFC0825B823008F0DBC064
:100A7000188986E090E1BCDC812F8DDC80E08BDC86
:100A80008D2D89DC8C2D87DC67E006C1845C82308B
:100A900008F0C9C08D2D9C2DABDCD1948FEF850D56
:100AA000D8228D2D90E00817190708F4D02EDD20EC
:100AB00079F06AE08D2D37DD782E0D19110975DC7E
:100AC0006C01662D80E090E1BBDCC60191DC02C0C8
:100AD000AAE07A2EC52CD12C0115110509F4F7C016
:100AE000672D0C151D0530F0852D1DDD782E0C1998
:100AF0001D0905C0802F17DD782E00E010E055DCC1
:100B00005C01662D80E090E19BDCC50171DCE4CFE7
:100B1000823C50F4803C80F4823259F008F483C067
:100B2000825B823030F07FC0843C19F0853C21F03C
:100B30007AC0F3E1DF2E02C0E2E0DE2E4E84512CBB
:100B4000612C712C3201552444248C85482A8D85D2
:100B500090E0982F8827A0E0B0E0482A592A6A2A16
:100B60007B2A22DD81E01ADD8D2D18DD0130110593
:100B700011F448899BC00430110518F0F2E0DF162B
:100B8000B9F08D2D0BDDC301B2011EDC8FEF800F9C
:100B900086DC888900DCD02E0CE111E0DA94DD20BF
:100BA00009F495C0F80181918F01A6DBC4DBF6CF73
:100BB000C80196958795BB24BA94B80EC301B201BB
:100BC00003DC6EE082E074DC8B2D69DCD988C88898
:100BD00085E592DB85E690DB8C2D8EDB8D2D8CDB25
:100BE0006401AB2CF2E0CF0ED11CAA2041F0F6013B
:100BF000808982DBF60181897FDBAA94F3CFEB2D1C
:100C0000F0E03696EE0FFF1F00FF09C0E55FFE4FD4
:100C1000168185E571DB84E66FDB812F6DDB66E095
:100C200082E046DC54C082EA55C0F70127812630B5
:100C300028F4243098F4222339F04BC0263009F4EC
:100C400046C0273059F045C085E890E0BBDC3DDC6C
:100C5000811102C08BEA3EC0FEDC3DC04A84512CAB
:100C6000612C712C3201552444248885482A8985B9
:100C700090E0982F8827A0E0B0E0482A592A6A2AF5
:100C80007B2A80910201813059F4273001F182DC06
:100C90006FEFC201D5DB62E080E090E1D1DB17C0ED
:100CA00083DC81E07BDC88E079DC4FEFC301B201BB
:100CB000AEDB0DC081E0809308018FE780930101D6
:100CC0006FE78EE1D2DB8CE1E0DB8093000180E80E
:100CD00001C080EA8DDCB29B02C08BEA89DC8BE12B
:100CE00017DC6FEF7FEFFBDA8C016401F601819175
:100CF0006F010EDCB801F3DA8C0121E131E02C1533
:100D00003D05A1F78EE004DCB801E9DA6C0184014D
:100D1000C801881999090F5F1F4F2A813B818217EB
:100D2000930738F4F8018581F3DBB601D8DA6C015A
:100D3000EFCF8C2DEDDB8D2DEBDBE0ECF0E0808157
:100D400086FFFBCFE0910901F0E0EE0FFF1FE557B2
:100D5000FF4F859194919093C5008093C400E3CC9C
:040D6000F894FFCF35
:040D6400FFFF01008C
:00000001FF
